:100000000C9409010C9431010C9431010C942105DC
:100010000C9421050C9421050C9431010C943101B0
:100020000C9431010C9431010C9431010C94310188
:100030000C9431010C9431010C9431010C94310178
:100040000C94B00B0C9431010C94E0030C94BA03A3
:100050000C9431010C9431010C9431010C94310158
:100060000C9431010C943101BD08CF08D208D90895
:10007000E0080E09150922092F093B093B093B0934
:100080003B093B093B093B093B093B093B093B0950
:100090003B093B093B093B093B093B093B093B0940
:1000A0003B093B093B093B09BD08CA08CF08D208F8
:1000B000D908E008E708F408010900407A10F35A6B
:1000C00000A0724E18090010A5D4E80000E8764898
:1000D000170000E40B54020000CA9A3B000000E144
:1000E000F505000080969800000040420F000000D7
:1000F000A08601000000102700000000E8030000B7
:1001000000006400000000000A0000000000010080
:10011000000000002C76D888DC674F0823DFC1DFA1
:10012000AE59E1B1B796E5E3E453C63AE6519976A4
:1001300096E8E6C28426EB898C9B62ED407C6FFCDE
:10014000EFBC9C9F40F2BAA56FA5F490055A2AF720
:100150005C936B6CF9676DC11BFCE0E40D47FEF529
:1001600020E6B500D0ED902E030094357705008091
:10017000841E080000204E0A000000C80C333333F0
:10018000330F986E12831141EF8D2114893BE65590
:1001900016CFFEE6DB18D1844B381BF77C1D901D73
:1001A000A4BBE424203284725E228100C9F124ECD5
:1001B000A1E53D270000000800020100000304073C
:1001C00000000000000000000000000023002600E6
:1001D000290000000000250028002B00040404046E
:1001E00004040404020202020202030303030303E1
:1001F00001020408102040800102040810200102BE
:100200000408102000000000240027002A002B1200
:10021000031211241FBECFEFD8E0DEBFCDBF25E013
:10022000AAE5B3E001C01D92A834B207E1F713E0DC
:10023000A0E0B1E0E4EAF5E302C005900D92AA3532
:10024000B107D9F711E0C8E0D1E004C02197FE0161
:100250000E947518C730D107C9F70E94FA0B0C9499
:10026000C51A0C9400000895CF92DF92EF92FF928E
:100270000F931F93CF93DF936C017A018B01C0E042
:10028000D0E0CE15DF0581F0D8016D918D01D6014A
:10029000ED91FC910190F081E02DC6010995892B2B
:1002A00011F02196EECF7E01C701DF91CF911F9112
:1002B0000F91FF90EF90DF90CF900895FC01538D48
:1002C000448D252F30E0842F90E0821B930B541730
:1002D00010F0CF96089501970895FC01918D828DBD
:1002E000981761F0828DDF01A80FB11D5D968C918A
:1002F000928D9F5F9F73928F90E008958FEF9FEF95
:100300000895FC01918D828D981731F0828DE80F50
:10031000F11D858D90E008958FEF9FEF0895FC010A
:10032000918D228D892F90E0805C9F4F821B9109D7
:100330008F739927089588EA93E00E948F0121E046
:10034000892B09F420E0822F0895FC01848DDF01C0
:10035000A80FB11DA35ABF4F2C91848D90E0019638
:100360008F739927848FA689B7892C93A089B18927
:100370008C91837080648C93938D848D981306C0C8
:100380000288F389E02D80818F7D80830895EF922C
:10039000FF920F931F93CF93DF93EC0181E0888F3F
:1003A0009B8D8C8D981305C0E889F989808185FD26
:1003B00026C0F62E0B8D10E00F5F1F4F0F73112715
:1003C000E02E8C8DE8120CC00FB607FCFACFE8893E
:1003D000F989808185FFF5CFCE010E94A501F1CF7B
:1003E0008B8DFE01E80FF11DE35AFF4FF0829FB79E
:1003F000F8940B8FEA89FB89808180620AC09FB7DD
:10040000F894EE89FF896083E889F9898081837097
:10041000806480839FBF81E090E0DF91CF911F9146
:100420000F91FF90EF900895CF93DF93EC01888DAB
:100430008823C9F0EA89FB89808185FD05C0A889E8
:10044000B9898C9186FD0FC00FB607FCF5CF80816E
:1004500085FFF2CFA889B9898C9185FFEDCFCE01B8
:100460000E94A501E7CFDF91CF91089580E090E051
:10047000892B29F00E949B0181110C9400000895A2
:1004800020919C0330919D032817390771F49091B6
:100490009A0380919B03981741F0E0919A03F0E052
:1004A000E65AFC4F808190E008958FEF9FEF08950A
:1004B00008951F93CF93DF93DC015C968D919C91FF
:1004C0005D97009739F421E030E013963C932E932A
:1004D00012973BC05196ED91FC91529750962C91FA
:1004E0005097322F30951FB75E964C915E97742FC0
:1004F000727041FD6095F8944081772311F0422B92
:1005000001C043234083EC012197F1F748E050817B
:1005100060FF02C0522B01C053235083EC0121978E
:10052000F1F76695415099F78081772319F083237D
:10053000808302C0282B20831FBF5C968D919C91E5
:100540005D970197F1F781E090E0DF91CF911F91E6
:10055000089520919C0330919D032817390771F469
:1005600080919B0320919A0390E0805C9F4F821BB7
:10057000910960E470E00E943F18089580E090E0E7
:10058000089520919C0330919D0328173907B9F4F1
:1005900090919A0380919B03981789F0E0919A03B8
:1005A000F0E0E65AFC4F808120919A0330E02F5F03
:1005B0003F4F2F73332720939A0390E008958FEFD6
:1005C0009FEF089580E090E00895CF93DF93EC01D2
:1005D00060E08E810E94100A61E08E810E94100A04
:1005E00060E08E810E94100A8BE891E00197F1F79C
:1005F000DF91CF9108950E947E1A0F931F93CF939E
:10060000DF938C01EB01FC0180819181009739F02F
:100610006881798161157105A1F40E942F19888183
:100620009981F801918380838A819B81938382835E
:100630008C819D8195838483198218821B821A8202
:100640000FC0F801428153812C813D81421753072D
:1006500020F30E94951A8C819D81F80195838483F3
:100660001D821C82DF91CF911F910F910895FC0193
:10067000808191810C942F190F931F93CF93DF9357
:10068000EC0188819981009729F02A813B81261706
:10069000370788F48B016F5F7F4F0E94B81900976E
:1006A00061F0998388831B830A832C813D81232BEE
:1006B00011F4FC01108281E001C080E0DF91CF9154
:1006C0001F910F910895EF92FF920F931F93CF9375
:1006D000DF93EC017B018A01BA010E943C0328816F
:1006E000398181110DC02115310519F0C9010E9410
:1006F0002F19198218821D821C821B821A8206C041
:100700001D830C83B701C9010E94951ACE01DF91A8
:10071000CF911F910F91FF90EF900895FC011182EE
:10072000108213821282158214826115710551F0B4
:10073000FB0101900020E9F73197AF01461B570BF1
:100740000C94630308956115710579F0FB01019024
:100750000020E9F73197AF01461B570BDC01ED9103
:10076000FC910280F381E02D099480E090E00895EF
:100770000C94A3031F920F920FB60F9211242F9384
:100780003F934F935F936F937F938F939F93AF9319
:10079000BF93EF93FF9388EA93E00E94A501FF9136
:1007A000EF91BF91AF919F918F917F916F915F91E9
:1007B0004F913F912F910F900FBE0F901F90189562
:1007C0001F920F920FB60F9211242F938F939F9326
:1007D000EF93FF93E091B803F091B9038081E0912A
:1007E000BE03F091BF0382FD12C090818091C103CE
:1007F0008F5F8F732091C203821751F0E091C10384
:10080000F0E0E855FC4F958F8093C10301C08081D3
:10081000FF91EF919F918F912F910F900FBE0F90AD
:100820001F901895CF93DF93EC018A859B85AC854B
:10083000BD858E839F83A887B9870E94A40B6A8396
:100840007B838C839D8381E089838883DF91CF9133
:100850000895CF93DF93EC018E819F81A885B985A0
:100860008A839B83AC83BD830E94A40B6A877B87AA
:100870008C879D8781E089838883DF91CF9108955C
:100880002F923F924F925F926F927F928F929F92A0
:10089000AF92BF92CF92DF92EF92FF920F931F938E
:1008A000CF93DF93D82FC92F8B010E94031424E626
:1008B00030E040E050E00E94531849015A019B018A
:1008C000AC0160E876E988E990E00E942F186B019E
:1008D0007C01F80191828082ED2FFC2F2191822FE3
:1008E000022E000C990BC0970A97C0F32E3239F5EF
:1008F0001F0180E8882E86E9982E88E9A82EB12C61
:100900009AE0492E512C612C712CF101C1911F01EB
:100910000C2E000CDD0BE097CA30D10580F4C50128
:10092000B401A30192010E94531849015A01DE014A
:100930000E947B18C60ED71EE81EF91EE6CFA5E062
:10094000B0E0A70196010E94FF166F5F7F4F8F4FA7
:100950009F4F23E030E040E050E00E945318F80140
:1009600022833383448355831682DF91CF911F9175
:100970000F91FF90EF90DF90CF90BF90AF909F903E
:100980008F907F906F905F904F903F902F90089541
:10099000FF920F931F93CF93DF93EC01F8802DE22A
:1009A000F21201C02196CE010E9403149B01AC01FA
:1009B000A4E6B0E00E94FF16FE014991242F042E08
:1009C000000C330B205331092A303105A8F34E3285
:1009D00041F52181022E000C330B205331092A30BE
:1009E0003105F8F44AE0429F8001439F100D112425
:1009F000012E000C220B330B600F711F821F931FFF
:100A00000281002E000C110B005311090A30110550
:100A100040F4012E000C220B330B600F711F821F5C
:100A2000931F2DE2F21207C0909580957095619505
:100A30007F4F8F4F9F4FDF91CF911F910F91FF906D
:100A400008951F920F920FB60F9211242F933F9388
:100A50004F935F936F937F938F939F93AF93BF93C6
:100A6000EF93FF93E0919C03F0919D03309709F47D
:100A700051C0968DA685B785858591FF04C09C9150
:100A8000892329F447C09C91892309F043C0A38995
:100A9000B4899C918589809589238C9386899789CF
:100AA0000197F1F7608D718DA685B785558538E082
:100AB00020E0CB010197F1F7822F90E09595879583
:100AC000282F4C91452309F02068315091F7868DED
:100AD00081FD209580919B0390E001968F7399276B
:100AE00030919A03381749F0A0919B03B0E0A65AC1
:100AF000BC4F2C9380939B0303C0868D8160868FAF
:100B0000828D938D0197F1F7A389B4899C91858992
:100B1000892B8C93FF91EF91BF91AF919F918F9112
:100B20007F916F915F914F913F912F910F900FBEE9
:100B30000F901F901895CF92DF92EF92FF920F9334
:100B40001F93CF93DF936C017C0187E0E80EF11CCB
:100B5000C0E0D0E0062F10E0B8010C2E02C0759561
:100B600067950A94E2F76170F70181917F010E9415
:100B7000100A2196C430D10579F7C601DF91CF91D3
:100B80001F910F91FF90EF90DF90CF900C94E502B2
:100B9000CF92DF92EF92FF920F931F93CF93DF9349
:100BA000EC01F62E642F8C810E94100A8D818F3FFC
:100BB00019F060E00E94100A8F850F2D10E084FF6D
:100BC00025C06E0187E0C80ED11CE12CF12CB801C4
:100BD0000E2C02C0759567950A94E2F76170F601D4
:100BE00081916F010E94100AFFEFEF1AFF0A88E05F
:100BF000E816F10461F7CE01DF91CF911F910F91BB
:100C0000FF90EF90DF90CF900C94E502B80184E064
:100C1000759567958A95E1F7CE010E949B056F2D2A
:100C2000CE01DF91CF911F910F91FF90EF90DF9058
:100C3000CF900C949B0541E00E94C80581E090E0B4
:100C4000089540E0682F86E794E00C94C80581E0A1
:100C50000E9421068BE39FE10197F1F70895CF935E
:100C6000DF936AE188EA93E00E94C701EC016EE33A
:100C700073E088EA93E00E94A3038C0F9D1FDF912D
:100C8000CF910895FC01448155816081718188EA8A
:100C900093E00C943401CF93DF93BC0188EA93E096
:100CA0000E94A303EC016EE373E088EA93E00E94E4
:100CB000A3038C0F9D1FDF91CF910895EF92FF92B8
:100CC0000F931F93CF93DF93CDB7DEB7A1970FB6E6
:100CD000F894DEBF0FBECDBF7C01CB01BA01F70196
:100CE0001182108213821282158214828E010F5F8C
:100CF0001F4F26E048E00E94E313009769F0FC01D3
:100D000001900020E9F73197AF01481B590BBC0156
:100D1000C7010E9463030EC0F70180819181009793
:100D200011F00E942F19F70111821082158214828E
:100D300013821282A1960FB6F894DEBF0FBECDBF0C
:100D4000DF91CF911F910F91FF90EF900895CF9277
:100D5000DF92EF92FF9210928F046091990470914C
:100D60009A0480919B0490919C040E94711628E241
:100D70003BE64EE65EE40E94BD176B017C0160918C
:100D800097047091980480E090E00E9471169B0196
:100D9000AC01C701B6010E94511720919D04211199
:100DA0009058FF90EF90DF90CF900895CF92DF9210
:100DB000EF92FF9210928F046091920470919304CD
:100DC00080919404909195040E94711628E23BE66C
:100DD0004EE65EE40E94BD176B017C0160919004B9
:100DE0007091910480E090E00E9471169B01AC012B
:100DF000C701B6010E945117209196042111905805
:100E0000FF90EF90DF90CF9008950F931F93CF93B3
:100E1000DF93982F40912B0550912C0560912D0563
:100E200070912E054F5F5F4F6F4F7F4F40932B05A3
:100E300050932C0560932D0570932E05843209F490
:100E400059C2E0912505853234F48A3071F08D3035
:100E500009F05EC20AC08A3241F08C3209F058C2F1
:100E600080911205892780931205092FEF3008F031
:100E700030C2F0E0EC5EFA4F1082809113058823B7
:100E800009F41DC1209114053FEB320F822F022E71
:100E9000000C990B363010F4C79707C02156263046
:100EA00018F48755910901C0C097282F2295207FFB
:100EB000309115054FEB430F832F032E000C990B38
:100EC000463010F4C79707C03156363018F48755AE
:100ED000910901C0C097820F909112058913DBC060
:100EE0008091370590913805A0913905B0913A0568
:100EF0000196A11DB11D8093370590933805A093ED
:100F00003905B0933A0580912605882399F08091A0
:100F10002F0590913005A0913105B09132050196D1
:100F2000A11DB11D80932F0590933005A09331052D
:100F3000B0933205109123051123B9F1113009F056
:100F400084C080EB94E00E9429048EEB94E00E9420
:100F5000290480912605882309F477C087E0EEE90B
:100F6000F4E0A0E9B4E001900D928A95E1F787E002
:100F7000E5EAF4E0A7E9B4E001900D928A95E1F783
:100F80000E94A40B6093AC047093AD048093AE04F4
:100F90009093AF0410938F0410938E048CEC94E024
:100FA0000E9412048AED94E04EC08EEB94E00E9401
:100FB000290480912605882329F187E0EEE9F4E0F1
:100FC000A0E9B4E001900D928A95E1F787E0E5EAA7
:100FD000F4E0A7E9B4E001900D928A95E1F70E9450
:100FE000A40B6093AC047093AD048093AE04909313
:100FF000AF0481E080938F0480938E0488EE94E0A8
:101000000E9412048091000590910105A0910205B3
:10101000B09103058093FC049093FD04A093FE041B
:10102000B093FF040E94A40B6093F8047093F9043A
:101030008093FA049093FB0481E08093F7048093FB
:10104000F60484E095E00E941204C0912905D09135
:101050002A0511E0209709F43EC1E0912905F0919D
:101060002A0566A177A18EA19FA10E948C1A892BC7
:1010700009F031C1BE01CE0140960E94951A0E942E
:10108000A40B68A379A38AA39BA31DA31CA30AA4F2
:10109000DBA5C02DDFCF8091330590913405A09161
:1010A0003505B09136050196A11DB11D809333051C
:1010B00090933405A0933505B09336050AC19091FD
:1010C0002405911142C061E473E084E195E00E943F
:1010D0008C1A892B41F067E473E084E195E00E946B
:1010E0008C1A892B11F481E014C06DE473E084E163
:1010F00095E00E948C1A892B41F063E573E084E14E
:1011000095E00E948C1A892B19F41092230503C0D4
:1011100082E0809323058091270590912805909384
:101120002A0580932905C0912905D0912A05209789
:1011300009F4CFC064E175E08EA19FA10E948C1AD2
:1011400097FFC1C08AA59BA5EACFE0912305E230B5
:1011500009F491C080911405882309F48CC020E221
:10116000E29FF0011124E92B3197E932F10508F0F3
:1011700082C0EC5CFF4F0C94751884E195E00E94EE
:10118000C8046093C4047093C5048093C60490930C
:10119000C70471C091E0813409F043C043C06EE9D7
:1011A00074E009C091E0833509F090E09093A404C5
:1011B00062C065EA74E084E195E00E9440045BC08F
:1011C00091E0873509F090E09093AB0454C084E13E
:1011D00095E00E94C8046093D6047093D70480936E
:1011E000D8049093D90447C084E195E00E94C804D4
:1011F0006093E4047093E5048093E6049093E7041D
:101200003AC084E195E00E9403146093B6047093A1
:10121000B7048093B8049093B9042DC091E0813352
:101220000CF490E09093260526C084E195E00E949E
:101230000314609300057093010580930205909359
:10124000030519C084E195E00E94C80460930E056F
:1012500070930F0580931005909311050CC084E1E5
:1012600095E00E94C8046093F2047093F3048093A5
:10127000F4049093F504C0912905D0912A05209794
:1012800041F1E0912905F0912A0566A177A18EA18F
:101290009FA10E948C1A892BE1F428A539A5809181
:1012A000240590E082179307A4F02817390739F432
:1012B00040E150E064E175E0CE010E949C1A0AA46E
:1012C000DBA5C02DDCCF892B21F010922A051092CE
:1012D000290580E001C081E0909124059F5F9093F3
:1012E00024051092250591E00A3209F090E09093D0
:1012F000130523C0109225051092240510921205A3
:1013000082E080932305109213051092260514C0E5
:10131000EE3040F481E08E0F80932505F0E0EC5E26
:10132000FA4F908380911305811106C02091120518
:1013300092279093120501C080E0DF91CF911F9119
:101340000F910895843008F083E090918904891703
:1013500010F08FEF890FE82FF0E0EA58FB4F8489F7
:1013600080680C9421060F931F930E94A40B609336
:10137000B0037093B1038093B2039093B30388EAF0
:1013800093E00E946D0197FF1FC00E94A40B009183
:10139000B0031091B1032091B2033091B303DC018B
:1013A000CB01801B910BA20BB30B0091AC031091EE
:1013B000AD032091AE033091AF0380179107A207D0
:1013C000B307E8F28FEF9FEF1F910F910895CF932E
:1013D000DF93282F30E0F901EC54FE4F8491F9019E
:1013E000E051FE4FD491F901E452FE4FC491CC2359
:1013F00091F081110E94050BEC2FF0E0EE0FFF1F22
:10140000E853FE4FA591B491EC91ED2381E090E07B
:1014100021F480E002C080E090E0DF91CF91089558
:101420001F93CF93DF93282F30E0F901EC54FE4F48
:101430008491F901E051FE4FD491F901E452FE4F3D
:10144000C491CC23C1F0162F81110E94050BEC2F03
:10145000F0E0EE0FFF1FEE52FE4FA591B4919FB743
:10146000F894111104C08C91D095D82302C0EC914E
:10147000DE2BDC939FBFDF91CF911F910895CF9317
:10148000DF93823028F090918504986090938504D2
:101490008093890410928A0480E480938B0480E115
:1014A00080938C0480E580938D0461E080917A04C0
:1014B0000E942E0B80917B048F3F19F061E00E9407
:1014C0002E0B61E080917C040E942E0BC6E7D4E0D5
:1014D0009E01265734408091850484FD03C084E03A
:1014E00090E002C088E090E02196281739072CF49C
:1014F00061E08E810E942E0BEBCF8BE39DE0019784
:10150000F1F760E080917A040E94100A60E0809117
:101510007C040E94100A80917B048F3F19F060E0E8
:101520000E94100A8091850484FD20C063E086E754
:1015300094E00E949B05CBE4D6E4CE010197F1F73D
:1015400063E086E794E00E949B052197F1F763E052
:1015500086E794E00E949B0583E592E00197F1F70E
:1015600062E086E794E00E949B0515C080620E94BD
:1015700021068BE496E40197F1F78091850480625F
:101580000E94210683E592E00197F1F7809185049E
:1015900080620E9421068091850480620E9421065B
:1015A00084E0809386048CE00E9421060E94270636
:1015B00082E08093870486E0DF91CF910C9421062E
:1015C0003FB7F8948091400590914105A091420564
:1015D000B091430526B5A89B05C02F3F19F0019691
:1015E000A11DB11D3FBFBA2FA92F982F8827820FA9
:1015F000911DA11DB11DBC01CD0142E0660F771FF9
:10160000881F991F4A95D1F70895833081F028F4F7
:10161000813099F08230A1F008958730A9F08830A8
:10162000B9F08430D1F4809180008F7D03C0809127
:1016300080008F7780938000089584B58F7702C0F3
:1016400084B58F7D84BD08958091B0008F7703C0ED
:101650008091B0008F7D8093B0000895CF93DF9389
:1016600090E0FC01E051FE4F2491FC01E452FE4F5A
:101670008491882361F190E0880F991FFC01EC5F51
:10168000FD4FC591D491FC01EE52FE4FA591B4914E
:10169000611109C09FB7F8948881209582238883BF
:1016A000EC912E230BC0623061F49FB7F8948881CF
:1016B000322F309583238883EC912E2B2C939FBF60
:1016C00006C08FB7F894E8812E2B28838FBFDF9157
:1016D000CF9108958F929F92AF92BF92CF92DF9257
:1016E000EF92FF926B017C010E94E00A4B015C01CA
:1016F000C114D104E104F104F1F00E94E00ADC011C
:10170000CB0188199909AA09BB09883E9340A10514
:10171000B10570F321E0C21AD108E108F10888EEA2
:10172000880E83E0981EA11CB11CC114D104E104F1
:10173000F10419F7DDCFFF90EF90DF90CF90BF90CD
:10174000AF909F908F9008952FB7F89460913C05CB
:1017500070913D0580913E0590913F052FBF089502
:101760001F920F920FB60F9211242F933F938F93D6
:101770009F93AF93BF9380913C0590913D05A091BD
:101780003E05B0913F0530913B0523E0230F2D37F7
:1017900020F40196A11DB11D05C026E8230F029675
:1017A000A11DB11D20933B0580933C0590933D0501
:1017B000A0933E05B0933F0580914005909141056F
:1017C000A0914205B09143050196A11DB11D8093E2
:1017D000400590934105A0934205B0934305BF9106
:1017E000AF919F918F913F912F910F900FBE0F90CE
:1017F0001F901895CF93DF93CDB7DEB728970FB61C
:10180000F894DEBF0FBECDBF789484B5826084BDEE
:1018100084B5816084BD85B5826085BD85B58160F4
:1018200085BD80916E00816080936E001092810072
:10183000809181008260809381008091810081602D
:1018400080938100809180008160809380008091EE
:10185000B10084608093B1008091B000816080937A
:10186000B00080917A00846080937A0080917A0041
:10187000826080937A0080917A00816080937A0000
:1018800080917A00806880937A001092C10060E0B5
:101890008CE00E942E0B60E08AE00E942E0B60E03C
:1018A0008DE00E942E0B61E08BE00E942E0B61E028
:1018B00080E10E942E0B60E08AE00E94100A60E046
:1018C0008DE00E94100A82E00E943F0AE091B80376
:1018D000F091B90382E08083E091B403F091B50305
:1018E0001082E091B603F091B7038FEC80831092E1
:1018F000C003E091BC03F091BD0386E08083E091DA
:10190000BA03F091BB03808180618083E091BA03C8
:10191000F091BB03808188608083E091BA03F091ED
:10192000BB03808180688083E091BA03F091BB03A0
:1019300080818F7D808368EE73E080E090E00E947C
:101940006A0B10927204109271041092700410923B
:101950006F0410926E0410926D048DE991E09093E3
:1019600074048093730490916304963108F058C016
:101970002DEB30E030936E0420936D042BE931E0C1
:101980003093700420936F042CE231E030937204A2
:101990002093710440916800983058F031E09E30F7
:1019A00008F430E021E0822F01C0880F3A95EAF771
:1019B00001C084E0842B80936800983038F09E301A
:1019C00040F0963148F020E030E008C02DE630E0ED
:1019D00005C02BE630E002C02CE630E030936B040B
:1019E00020936A04983030F481E001C0880F9A9502
:1019F000EAF70EC0292F30E09E3018F42850310944
:101A000002C02E50310981E001C0880F2A95EAF703
:101A100080936C0480917304909174040197F1F7A2
:101A20008091710490917204892B49F1E0919C039B
:101A3000F0919D0324E0E735F20709F1309739F082
:101A4000A389B4899C918589809589238C93809101
:101A500075048E7F8093750410929B0310929A03F5
:101A600087E594E090939D0380939C03E0916A0442
:101A7000F0916B04908180916C04892B808368EED7
:101A800073E080E090E00E946A0B9EE1E92EF12C69
:101A90008CE00E94E709019709F0A9C30E9427067C
:101AA00067E371E086E794E00E94B80368EE73E0B4
:101AB00080E090E00E946A0B0E94270667E471E0D4
:101AC00086E794E00E94B80381E00E94A20965E5E0
:101AD00071E086E794E00E94B80368EE73E080E06E
:101AE00090E00E946A0B0E94270666E671E086E796
:101AF00094E00E94B80381E00E94A20966E771E0C9
:101B000086E794E00E94B80360ED77E080E090E023
:101B10000E946A0B0E9427068AE00E94E70901974B
:101B200009F058C361E080E10E94100A82E0C82EEB
:101B3000D12C80910001882309F4AACF80E00E9473
:101B4000A20966E871E086E794E00E94B80368EEB7
:101B500073E080E090E00E946A0B61E08BE00E94FD
:101B6000100A8AE00E94E709019711F060E006C0C0
:101B70008AE00E94E709019721F461E080E10E9478
:101B8000100A8091A6039091A703892B09F005C143
:101B900081E00E94A20967E971E086E794E00E9473
:101BA000B8031092A5031092A4038091A40390910E
:101BB000A503C2970CF050C01092A3031092A20389
:101BC0008091A2039091A303CC97B4F587E594E0AC
:101BD0000E94C1020E9405070E94D606AB01BC010B
:101BE000CE0101960E945E06BE016F5F7F4F81E5C8
:101BF00094E00E94FD02CE0101960E9437030E94EC
:101C0000A706AB01BC01CE0101960E945E06BE0193
:101C10006F5F7F4F8BE494E00E94FD02CE0101963E
:101C20000E9437038091A2039091A30301969093A1
:101C3000A3038093A203C4CF6AE070E080E090E049
:101C40000E946A0B8091A4039091A5030196909342
:101C5000A5038093A403A9CF88EA91E00E944B06D4
:101C600068EE73E080E090E00E946A0B82EB91E006
:101C70000E944B0668EE73E080E090E00E946A0BE1
:101C80008CEB91E00E944B0668EE73E080E090E000
:101C90000E946A0B65ED71E088EA93E00E94B80348
:101CA00066EE71E088EA93E00E94B80381E594E073
:101CB0000E94420669E072E088EA93E00E94B8035D
:101CC0008BE494E00E94420668EC70E080E090E0D3
:101CD0000E946A0B6BE373E088EA93E00E94B8030A
:101CE0006BE072E088EA93E00E94B8036CE272E075
:101CF00088EA93E00E94B80364E670E080E090E038
:101D00000E946A0B0E942F0668EB7BE080E090E067
:101D10000E946A0B0E9427066AE372E086E794E05D
:101D20000E94B80360E08BE00E94100A68EB7BE041
:101D300080E090E00E946A0B0E94270667E472E050
:101D400086E794E00E94B80360ED77E080E090E0E1
:101D50000E946A0B0E94270662E370E080E090E038
:101D60000E946A0B64E670E080E090E00E946A0BDB
:101D70008AE00E94E709019711F060E006C08AE05E
:101D80000E94E709019721F461E080E10E94100AB6
:101D9000D092A703C092A6033AC068EC70E080E03E
:101DA00090E00E946A0B80E00E94A20964E572E064
:101DB00086E794E00E94B80368EE73E080E090E06C
:101DC0000E946A0B0E9427068091A6039091A703A8
:101DD00001979093A7038093A60360E08BE00E9495
:101DE000100A8AE00E94E709019711F060E006C03E
:101DF0008AE00E94E709019721F461E080E10E94F6
:101E0000100A64EF71E080E090E00E946A0B64EFDA
:101E100071E080E090E00E946A0B86E692E00E940A
:101E20004B0680E00E94A20968E772E086E794E032
:101E30000E94B80364E670E080E090E00E946A0BC4
:101E40008091A0039091A1034A970CF0B0C188EA59
:101E500093E00E948F0118161906B4F560E473E050
:101E6000CE0101960E948E030E94B30997FD1BC00C
:101E70008F8318860D811E810F5F1F4FB801CE0121
:101E800001960E943C03882379F329813A818D8150
:101E90009E81BE01695F7F4F820F931F0E94951A3A
:101EA0001E830D83E1CFBE016F5F7F4F85E494E019
:101EB0000E94FD02CE0101960E9437036AE070E0A5
:101EC00080E090E00E946A0B65E372E0CE0101962B
:101ED0000E948E038091490490914A04892B81F0DD
:101EE000009145041091460469817A81C8010E94DD
:101EF000AB1A009729F09C01201B310B890102C00D
:101F00000FEF1FEFCE0101960E94370317FD2EC180
:101F10000E94270680E00E94A20968E872E086E736
:101F200094E00E94B8036AE070E080E090E00E94D4
:101F30006A0B89E992E00E944B066AE070E080E05B
:101F400090E00E946A0B80910001882309F40EC181
:101F500060E08AE00E94100A60E080E10E94100ABE
:101F600080919E0390919F03892B09F0D8C06AE06D
:101F700070E080E090E00E946A0B1092A50310923E
:101F8000A4038091A4039091A503C2970CF050C0C4
:101F90001092A3031092A2038091A2039091A30335
:101FA000CC97B4F587E594E00E94C1020E94050732
:101FB0000E94D606AB01BC01CE0101960E945E06CE
:101FC000BE016F5F7F4F81E594E00E94FD02CE016C
:101FD00001960E9437030E94A706AB01BC01CE0107
:101FE00001960E945E06BE016F5F7F4F8BE494E016
:101FF0000E94FD02CE0101960E9437038091A20348
:102000009091A30301969093A3038093A203C4CF5E
:102010006AE070E080E090E00E946A0B8091A40387
:102020009091A50301969093A5038093A403A9CF53
:1020300088EA91E00E944B0668EE73E080E090E051
:102040000E946A0B82EB91E00E944B0668EE73E0FF
:1020500080E090E00E946A0B8CEB91E00E944B06BE
:1020600068EE73E080E090E00E946A0B85EA92E0FF
:102070000E944B0665EB72E088EA93E00E94B80389
:1020800066EE71E088EA93E00E94B80381E594E08F
:102090000E94420669E072E088EA93E00E94B80379
:1020A0008BE494E00E9442068AEC92E00E944B0688
:1020B00068EC70E080E090E00E946A0B0E942F06BE
:1020C00068EB7BE080E090E00E946A0B0E942706AC
:1020D0006AE372E086E794E00E94B80368EE73E07A
:1020E00080E090E00E946A0B0E94270667E472E09D
:1020F00086E794E00E94B80368EE73E080E090E029
:102100000E946A0B0E94270664EF71E080E090E075
:102110000E946A0BF0929F03E0929E0318C080E039
:102120000E94A20965ED72E086E794E00E94B80380
:1021300080919E0390919F03019790939F038093BA
:102140009E036AE070E080E090E00E946A0B64EF1A
:1021500071E080E090E00E946A0B8CE00E94E70949
:10216000019709F4F0CE10920001EDCE8091A0030A
:102170009091A10301969093A1038093A00368EE30
:1021800073E080E090E00E946A0B8AE00E94E70919
:10219000019711F060E007C08AE00E94E70901970B
:1021A00009F04ECE61E080E10E94100A49CE109203
:1021B000A1031092A00364E670E080E090E00E942A
:1021C0006A0B8CE00E94E709019709F4B2CC1092E7
:1021D0000001ACCC8AE00E94E709019709F497C09E
:1021E0008DE00E94E709019709F091C095C08AE04F
:1021F0000E94E709019711F461E001C060E080E10D
:102200000E94100A80E00E94A2096AE173E086E75A
:1022100094E00E94B80381E00E94A2096BE273E09F
:1022200086E794E00E94B80333CC88EA91E00E94EC
:102230004B0668EE73E080E090E00E946A0B82EB50
:1022400091E00E944B0668EE73E080E090E00E940F
:102250006A0B8CEB91E00E944B0668EE73E080E025
:1022600090E00E946A0B86EE92E00E944B066DEBB6
:1022700072E088EA93E00E94B80366EE71E088EAB3
:1022800093E00E94B80381E594E00E94420669E071
:1022900072E088EA93E00E94B8038BE494E00E9425
:1022A000420685E093E00E944B0668EC70E080E017
:1022B00090E00E946A0B0E942F0668EB7BE080E0B2
:1022C00090E00E946A0B0E9427066AE372E086E7AC
:1022D00094E00E94B80368EE73E080E090E00E9412
:1022E0006A0B0E94270667E472E086E794E00E948A
:1022F000B80368EE73E080E090E00E946A0B0E94F1
:10230000270664EF71E080E090E00E946A0B60E0D5
:102310008BE00E94100ABCCB80E00E94A20966E814
:1023200071E086E794E00E94B80368EE73E080E015
:1023300090E00E946A0B61E08BE00E94100A81E04D
:102340000E94A20967E971E086E794E00E94B80361
:102350001092A5031092A4038091A4039091A50369
:10236000C2970CF062CF1092A3031092A203809147
:10237000A2039091A303CC97B4F587E594E00E9463
:10238000C1020E9405070E94D606AB01BC01CE0126
:1023900001960E945E06BE016F5F7F4F81E594E06B
:1023A0000E94FD02CE0101960E9437030E94A706FB
:1023B000AB01BC01CE0101960E945E06BE016F5FBB
:1023C0007F4F8BE494E00E94FD02CE0101960E94B3
:1023D00037038091A2039091A30301969093A303E6
:1023E0008093A203C4CF6AE070E080E090E00E9496
:1023F0006A0B8091A4039091A50301969093A50385
:102400008093A403A9CF85E494E00E9437038BE472
:1024100094E00E94370381E594E00E9437038DE148
:1024200091E0909358048093570480919C0390917D
:102430009D038755944071F4E0916A04F0916B0418
:10244000908180916C0480958923808310929D03F4
:1024500010929C030895CF92DF92EF92FF92109218
:10246000AB031092AA0398EEC92E93E0D92EE12C6B
:10247000F12CC092AC03D092AD03E092AE03F09287
:10248000AF038BE091E09093A9038093A80385ECC0
:1024900090E09093B5038093B40384EC90E0909324
:1024A000B7038093B60380EC90E09093B9038093D8
:1024B000B80381EC90E09093BB038093BA0382EC65
:1024C00090E09093BD038093BC0386EC90E09093E2
:1024D000BF038093BE031092C1031092C2031092F7
:1024E000C3031092C40310928E0410928F041092B2
:1024F00091041092900410929204109293041092FE
:1025000094041092950410929604109298041092DC
:1025100097041092990410929A0410929B041092BE
:102520009C0410929D0410929F0410929E0410929D
:10253000A0041092A1041092A2041092A30410927D
:10254000A4041092A6041092A5041092A70410925D
:10255000A8041092A9041092AA041092AB0410923D
:10256000B0041092B1041092B2041092B30410920D
:10257000B4041092B5041092BE041092BF041092DD
:10258000C0041092C1041092C2041092C3041092AD
:10259000CC041092CD041092D2041092D304109265
:1025A000D4041092D5041092DA041092DB04109235
:1025B000E0041092E1041092E2041092E3041092FD
:1025C000E8041092E9041092EE041092EF041092C5
:1025D000F0041092F1041092F6041092F704109295
:1025E000FC041092FD041092FE041092FF0410925D
:1025F00004051092050510920A0510920B05109221
:102600000C0510920D05109212051092130582E030
:10261000809323051092240510922505109226051B
:10262000109228051092270510922A05109229056C
:1026300010922B0510922C0510922D0510922E054C
:1026400010922F051092300510923105109232052C
:10265000109233051092340510923505109236050C
:1026600010923705109238051092390510923A05EC
:102670001092140510927904109278042FE231E040
:10268000309377042093760497E090937A049FEF39
:1026900090937B0496E090937C0495E090937D0466
:1026A00094E090937E0493E090937F048093800461
:1026B0001092810410928204109283041092840478
:1026C0001092850481E00E943F0A10925A041092F1
:1026D0005904C0925B04D0925C04E0925D04F092D5
:1026E0005E048DE191E0909358048093570410921A
:1026F0006E0410926D041092700410926F04109288
:102700007204109271041092740410927304609118
:1027100075046E7F6D7F609375046695617081E0CE
:10272000682789E00E94100A61E089E00E942E0B70
:10273000E9EFF1E0E491E0936704E5EEF1E0E49184
:10274000F0E0EE0FFF1FEE52FE4F859194919093B3
:1027500069048093680460E088E00E942E0B8091F9
:10276000750481FD04C061E088E00E94100A88E0E1
:1027700080936304E8EFF1E0E491E0936404E4EE15
:10278000F1E0E491F0E0EE0FFF1FE853FE4F85917A
:102790009491909366048093650460E473E081E50E
:1027A00094E00E948E0360E473E08BE494E00E9466
:1027B0008E0360E473E085E494E0FF90EF90DF9097
:1027C000CF900C948E03EF920F931F93CF93DF93D0
:1027D000E80147FD02C034E001C034E1042E000CE2
:1027E000550B57FF03C0519541955109E32E022F18
:1027F000242FAE010E943F14CE01DF91CF911F9193
:102800000F91EF9008951F93FC0199278827BC0131
:10281000E89411911032E9F3193010F01E30C8F32A
:102820001B3251F01D3249F4689406C00E942A14EC
:10283000610F711D811D911D119110531A30B0F35C
:102840003EF490958095709561957F4F8F4F9F4F87
:102850001F910895592F482F372F262F660F771F66
:10286000881F991F660F771F881F991F620F731F9C
:10287000841F951F660F771F881F991F0895A9E071
:10288000B0E0E5E4F4E10C9410176A01122FB02EC9
:102890002BE3201720F0FF24F394F00E02C02CE36A
:1028A000F22E0F2D27E0AE014F5F5F4F0E9499156A
:1028B000BC014981842F8970813031F0E1FC06C070
:1028C000E0FE06C090E205C09DE203C09BE201C0AD
:1028D00090E05E2D507143FF3CC0911102C083E037
:1028E00001C084E0811718F4212F281B01C020E0CB
:1028F00051110BC0F601822F30E2882319F0319379
:102900008150FBCFC20ED11C20E0992329F0D601C3
:102910009C93F60131966F01C6010396E2FE0AC050
:102920003EE4D6013C9341E411964C9311971296E4
:102930003C9306C03EE6F601308341E64183328394
:10294000FC01322F40E2332309F442C0419331505D
:10295000FACF42FF44C0911102C083E001C084E07D
:10296000811718F4212F281B01C020E051110BC042
:10297000F601822F30E2882319F031938150FBCF8A
:10298000C20ED11C20E0992329F0D6019C93F601B8
:1029900031966F01C6010396E2FE0BC039E4D60101
:1029A0003C933EE411963C93119736E412963C9387
:1029B00007C039E6F60130833EE6318336E63283DE
:1029C000FC01322F40E2332319F041933150FBCF09
:1029D000FC01E20FF11D10828EEF9FEFA6C021E0F7
:1029E00030E0911102C020E030E0161617061CF40A
:1029F000FB01319602C0E1E0F0E02E0F3F1FBB204B
:102A000021F0EB2DF0E0319602C0E0E0F0E02E0F77
:102A10003F1FE12FF0E02E173F071CF4121B212F60
:102A200001C020E08E2D887159F4F601822F30E22A
:102A3000882319F031938150FBCFC20ED11C20E0C6
:102A4000992329F0D6019C93F60131966F0151111B
:102A50000BC0F601822F90E3882319F091938150E7
:102A6000FBCFC20ED11C20E00F2D060F9A81342F10
:102A7000307144FF03C0913309F40150101624F45F
:102A8000093018F008E001C001E0AB0177FF02C097
:102A900040E050E0FB01E41BF50BA1E0B0E0AC0F1F
:102AA000BD1FEA0FFB1F8EE2A82E4B01801A910872
:102AB0000B2D10E01195019511094F3FBFEF5B07FA
:102AC00021F4D601AC9211966D01641775072CF0B4
:102AD0008416950614F4818101C080E341505109A8
:102AE0003196D60111967D014017510724F0D60189
:102AF0008C936701E2CF6417750739F4963320F49D
:102B0000953319F4311101C081E3F6018083F70197
:102B1000822F90E2882319F091938150FBCFF70127
:102B2000E20FF11D108280E090E02996ECE00C9419
:102B30002C17283008F027E03327DA01990F311DD0
:102B400087FD916000966105710539F432602E5F52
:102B50003D9330E32A95E1F708959F3F30F08038A8
:102B60007105610509F03C5F3C5F3D93913008F0D1
:102B70008068911DDF93CF931F930F93FF92EF9285
:102B8000192F987F9695E92F96959695E90FFF272F
:102B9000EC5EFE4F99273327EE24FF24A701E701BF
:102BA00005900894079428F4360FE71EF81E491F75
:102BB000511D660F771F881F991F0694A1F7059076
:102BC000079428F4E70EF81E491F561FC11D770F02
:102BD000881F991F661F0694A1F70590079428F493
:102BE000F80E491F561FC71FD11D880F991F661F5A
:102BF000771F0694A1F70590079420F4490F561FFC
:102C0000C71FD81F990F661F771F881F0694A9F743
:102C100084911095177041F0D695C79557954795B3
:102C2000F794E7941A95C1F7EAEBF0E068941590F1
:102C3000159135916591959105907FE27395E11815
:102C4000F10A430B560BC90BD009C0F7E10CF11E7A
:102C5000431F561FC91FD01D7EF4703311F48A958F
:102C6000E6CFE894015030F0080F0AF4002702176D
:102C700008F4202F2395022F7A3328F079E37D93EF
:102C80002A95E9F710C07D932A9589F606949795C1
:102C90006795379517951794E118F10A430B560B72
:102CA000C90BD00998F023957E9173957A3308F07B
:102CB00070E37C932013B8F77E9170617D9330F0C0
:102CC000839571E37D9370E32A95E1F71124EF90EA
:102CD000FF900F911F91CF91DF91992787FD9095DC
:102CE0000895E89409C097FB3EF4909580957095FF
:102CF00061957F4F8F4F9F4F9923A9F0F92F96E948
:102D0000BB279395F695879577956795B795F111BC
:102D1000F8CFFAF4BB0F11F460FF1BC06F5F7F4F59
:102D20008F4F9F4F16C0882311F096E911C077236B
:102D300021F09EE8872F762F05C0662371F096E874
:102D4000862F70E060E02AF09A95660F771F881F43
:102D5000DAF7880F9695879597F9089597F99F6701
:102D600080E870E060E008959FEF80EC0895002413
:102D70000A941616170618060906089500240A94E0
:102D800012161306140605060895092E0394000C66
:102D900011F4882352F0BB0F40F4BF2B11F460FFF5
:102DA00004C06F5F7F4F8F4F9F4F089557FD90581E
:102DB000440F551F59F05F3F71F04795880F97FBFF
:102DC000991F61F09F3F79F08795089512161306B9
:102DD0001406551FF2CF4695F1DF08C016161706E8
:102DE0001806991FF1CF869571056105089408951D
:102DF000E894BB2766277727CB0197F908950E94AF
:102E00004117A59F900DB49F900DA49F800D911D1B
:102E1000112408952F923F924F925F926F927F926A
:102E20008F929F92AF92BF92CF92DF92EF92FF92DA
:102E30000F931F93CF93DF93CDB7DEB7CA1BDB0B86
:102E40000FB6F894DEBF0FBECDBF09942A8839882B
:102E500048885F846E847D848C849B84AA84B98432
:102E6000C884DF80EE80FD800C811B81AA81B9813E
:102E7000CE0FD11D0FB6F894DEBF0FBECDBFED0152
:102E80000895A29FB001B39FC001A39F700D811D43
:102E90001124911DB29F700D811D1124911D089563
:102EA0005058BB27AA270E9468170C94C5160E9489
:102EB000B71638F00E94BE1620F039F49F3F19F47F
:102EC00026F40C94B4160EF4E095E7FB0C94AE16C1
:102ED000E92F0E94D61658F3BA17620773078407C2
:102EE000950720F079F4A6F50C94F8160EF4E09509
:102EF0000B2EBA2FA02D0B01B90190010C01CA01B4
:102F0000A0011124FF27591B99F0593F50F4503E5E
:102F100068F11A16F040A22F232F342F4427585F50
:102F2000F3CF469537952795A795F0405395C9F768
:102F30007EF41F16BA0B620B730B840BBAF0915020
:102F4000A1F0FF0FBB1F661F771F881FC2F70EC0BF
:102F5000BA0F621F731F841F48F487957795679592
:102F6000B795F7959E3F08F0B0CF9395880F08F07E
:102F70009927EE0F9795879508950E94D1170C9485
:102F8000C5160E94BE1658F00E94B71640F029F4EC
:102F90005F3F29F00C94AE1651110C94F9160C9465
:102FA000B4160E94D61668F39923B1F3552391F312
:102FB000951B550BBB27AA2762177307840738F0A8
:102FC0009F5F5F4F220F331F441FAA1FA9F335D005
:102FD0000E2E3AF0E0E832D091505040E695001CB9
:102FE000CAF72BD0FE2F29D0660F771F881FBB1F73
:102FF000261737074807AB07B0E809F0BB0B802D51
:10300000BF01FF2793585F4F3AF09E3F510578F07C
:103010000C94AE160C94F9165F3FE4F3983ED4F38B
:10302000869577956795B795F7959F5FC9F7880F50
:10303000911D9695879597F90895E1E0660F771FA2
:10304000881FBB1F621773078407BA0720F0621B33
:10305000730B840BBA0BEE1F88F7E0950895DB0124
:103060008F939F930E94FF16BF91AF91A29F800DF7
:10307000911DA39F900DB29F900D1124089597FB71
:10308000072E16F4009407D077FD09D00E9483180C
:1030900007FC05D03EF4909581959F4F089570955B
:1030A00061957F4F0895A1E21A2EAA1BBB1BFD015B
:1030B0000DC0AA1FBB1FEE1FFF1FA217B307E40717
:1030C000F50720F0A21BB30BE40BF50B661F771F6F
:1030D000881F991F1A9469F760957095809590954F
:1030E0009B01AC01BD01CF010895EE0FFF1F0590BC
:1030F000F491E02D0994B7FF0C94FF160E94FF167F
:10310000821B930B0895AA1BBB1B51E107C0AA1F8A
:10311000BB1FA617B70710F0A61BB70B881F991F78
:103120005A95A9F780959095BC01CD0108950F930C
:103130001F93CF93DF938230910510F482E090E0EB
:10314000E0914605F091470520E030E0A0E0B0E0D6
:10315000309719F140815181028113814817590735
:10316000C8F08417950769F4109731F012960C9304
:10317000129713961C9327C000934605109347059A
:1031800022C02115310519F04217530718F49A018E
:10319000BD01EF01DF01F801DBCF21153105F9F0A9
:1031A000281B390B2430310580F48A819B816115FD
:1031B000710521F0FB019383828304C0909347053E
:1031C00080934605FE01329644C0FE01E20FF31FD4
:1031D0008193919322503109398328833AC02091F9
:1031E000440530914505232B41F420910301309192
:1031F000040130934505209344052091010130914D
:1032000002012115310541F42DB73EB7409105016A
:1032100050910601241B350BE0914405F0914505C2
:10322000E217F307A0F42E1B3F0B2817390778F09D
:10323000AC014E5F5F4F2417350748F04E0F5F1FFC
:1032400050934505409344058193919302C0E0E07B
:10325000F0E0CF01DF91CF911F910F910895CF93AF
:10326000DF93009709F481C0FC0132971382128228
:10327000A0914605B0914705109781F420813181D6
:10328000820F931F20914405309145052817390777
:1032900051F5F0934505E093440567C0ED0120E04A
:1032A00030E0CE17DF0740F44A815B819E01411573
:1032B0005105F1F0EA01F5CFD383C28340815181FA
:1032C000840F951FC817D90759F488819981840FF5
:1032D000951F0296918380838A819B819383828349
:1032E0002115310529F4F0934705E09346053DC0CB
:1032F000E901FB83EA8349915991C40FD51FEC176B
:10330000FD0761F480819181840F951F0296E90188
:1033100099838883828193819B838A83E0E0F0E0B4
:1033200012968D919C911397009719F0FD01DC0185
:10333000F7CF8D919C9111979D012E5F3F4F820F8A
:10334000931F20914405309145052817390769F4EA
:10335000309729F4109247051092460502C0138257
:103360001282B0934505A0934405DF91CF91089553
:10337000A0E0B0E0EEEBF9E10C940E17EC01009741
:1033800021F4CB010E949718B4C0FC01E60FF71F8F
:103390009C0122503109E217F30708F4A8C0D901B3
:1033A0000D911C91119706171707B0F00530110504
:1033B00008F49BC0C80104978617970708F495C0C6
:1033C00002501109061B170B019311936D937C9307
:1033D000CF010E942F1989C05B01A01AB10A4C01CC
:1033E000800E911EA0914605B0914705612C712C6D
:1033F000E12CF12C109709F446C08D919C91119706
:10340000A815B905B1F56C0142E0C40ED11CCA146F
:10341000DB0478F14C018A189B08640142E0C40E79
:10342000D11C1296BC9012971396AC91B5E0CB16B6
:10343000D10440F0B282A38391828082D9016D933E
:103440007C9309C00E5F1F4F800F911FF90191837C
:103450008083EB2DFA2FE114F10431F0D70113969C
:10346000FC93EE93129741C0F0934705E093460515
:103470003CC06816790608F43C017D0112960D9057
:10348000BC91A02DB7CF8091440590914505881639
:103490009906E1F466167706C8F4809101019091CF
:1034A0000201009741F48DB79EB7409105015091FC
:1034B0000601841B950BE817F907C8F4F09345053E
:1034C000E0934405F901718360830FC0CB010E9432
:1034D00097187C01009759F0A801BE010E94831A39
:1034E000CE010E942F19C70104C0CE0102C080E0A6
:1034F00090E0CDB7DEB7EEE00C942A1781E090E0C3
:10350000F8940C94C51AFB01DC0102C001900D92E5
:1035100041505040D8F70895FB01DC018D91019096
:1035200080190110D9F3990B0895FB01DC0101907A
:103530000D920020E1F70895FB01DC01415050405D
:1035400048F001900D920020C9F701C01D92415032
:103550005040E0F70895FB0151915523A9F0BF01B8
:10356000DC014D9145174111E1F759F4CD0101906E
:10357000002049F04D9140154111C9F3FB01411163
:10358000EFCF81E090E00197089511E0C8E0D1E02D
:1035900004C0FE010E9475182196C930D107C9F7F1
:0435A000F894FFCFCD
:1035A4000100004805800000000000C70134015EEE
:1035B4000114028F016D01810100000000590234E1
:1035C40001E2025802A902C1024002000000001BED
:1035D400063401E20233012A2A2A204543452052B7
:1035E4004954202A2A2A0056656869636C65205468
:1035F4006865667400446574656374696F6E20530E
:10360400797374656D005365637572697479207399
:10361400797374656D002020206163746976617428
:1036240065642020200054686566742044657465D0
:103634006374656420200053656E64696E6720536B
:103644004D532E2E2E2E2E0041542B434D47443DD8
:10365400310041542B434D47463D310041542B43E7
:103664004D47533D222B39313935303236363034DB
:103674003238220D005468656674204465746563AD
:103684007465643A2000687474703A2F2F6D617009
:10369400732E676F6F676C652E636F6D2F6D61702E
:1036A400733F713D6C6F633A002C00496620796F5B
:1036B400752077616E7420746F2073746F7020743A
:1036C40068652076656869636C65200053656E647F
:1036D40020534D532053544F50004D65737361670D
:1036E400652053656E740053797374656D2052655B
:1036F400616479002054696D657220416374697650
:1037040061746564200041542B434E4D493D322C75
:10371400322C302C302C300057616974696E67206C
:10372400666F7220534D53002A2A534D53207265FD
:103734006365697665642A2A0041542B434D4744E6
:103744003D312C3400456E67696E652053746F708B
:10375400706564200050726573656E74206C6F63CD
:103764006174696F6E2069732000206875727279C4
:1037740020757021005570646174696E672047502C
:10378400532E2E2E2E0056656869636C65206D6F6E
:1037940076696E6720746865667420646574656311
:1037A400746564200020636865636B20796F7572AB
:1037B4002076656869636C65210053656375726979
:1037C40074792053797374656D200020202044653A
:1037D40061637469766174656420202020000D0A99
:1037E400004750524D4300474E524D430047504707
:0A37F400474100474E4747410000DF
:00000001FF
